{
  "address": "0x5BFd74b54378232DC1caC6e1C960a213b7DA4fBd",
  "abi": [
    {
      "inputs": [],
      "stateMutability": "nonpayable",
      "type": "constructor"
    },
    {
      "anonymous": false,
      "inputs": [
        {
          "indexed": true,
          "internalType": "address",
          "name": "owner",
          "type": "address"
        },
        {
          "indexed": true,
          "internalType": "address",
          "name": "approved",
          "type": "address"
        },
        {
          "indexed": true,
          "internalType": "uint256",
          "name": "tokenId",
          "type": "uint256"
        }
      ],
      "name": "Approval",
      "type": "event"
    },
    {
      "anonymous": false,
      "inputs": [
        {
          "indexed": true,
          "internalType": "address",
          "name": "owner",
          "type": "address"
        },
        {
          "indexed": true,
          "internalType": "address",
          "name": "operator",
          "type": "address"
        },
        {
          "indexed": false,
          "internalType": "bool",
          "name": "approved",
          "type": "bool"
        }
      ],
      "name": "ApprovalForAll",
      "type": "event"
    },
    {
      "anonymous": false,
      "inputs": [
        {
          "indexed": true,
          "internalType": "uint256",
          "name": "tokenId",
          "type": "uint256"
        },
        {
          "indexed": false,
          "internalType": "string",
          "name": "tokenURI",
          "type": "string"
        }
      ],
      "name": "CreatedSVGNFT",
      "type": "event"
    },
    {
      "anonymous": false,
      "inputs": [
        {
          "indexed": true,
          "internalType": "address",
          "name": "from",
          "type": "address"
        },
        {
          "indexed": true,
          "internalType": "address",
          "name": "to",
          "type": "address"
        },
        {
          "indexed": true,
          "internalType": "uint256",
          "name": "tokenId",
          "type": "uint256"
        }
      ],
      "name": "Transfer",
      "type": "event"
    },
    {
      "inputs": [
        {
          "internalType": "string",
          "name": "svg",
          "type": "string"
        }
      ],
      "name": "SVGtoImageURI",
      "outputs": [
        {
          "internalType": "string",
          "name": "",
          "type": "string"
        }
      ],
      "stateMutability": "pure",
      "type": "function"
    },
    {
      "inputs": [
        {
          "internalType": "address",
          "name": "to",
          "type": "address"
        },
        {
          "internalType": "uint256",
          "name": "tokenId",
          "type": "uint256"
        }
      ],
      "name": "approve",
      "outputs": [],
      "stateMutability": "nonpayable",
      "type": "function"
    },
    {
      "inputs": [
        {
          "internalType": "address",
          "name": "owner",
          "type": "address"
        }
      ],
      "name": "balanceOf",
      "outputs": [
        {
          "internalType": "uint256",
          "name": "",
          "type": "uint256"
        }
      ],
      "stateMutability": "view",
      "type": "function"
    },
    {
      "inputs": [
        {
          "internalType": "string",
          "name": "svg",
          "type": "string"
        }
      ],
      "name": "create",
      "outputs": [],
      "stateMutability": "nonpayable",
      "type": "function"
    },
    {
      "inputs": [
        {
          "internalType": "string",
          "name": "imageURI",
          "type": "string"
        }
      ],
      "name": "formatTokenURI",
      "outputs": [
        {
          "internalType": "string",
          "name": "",
          "type": "string"
        }
      ],
      "stateMutability": "pure",
      "type": "function"
    },
    {
      "inputs": [
        {
          "internalType": "uint256",
          "name": "tokenId",
          "type": "uint256"
        }
      ],
      "name": "getApproved",
      "outputs": [
        {
          "internalType": "address",
          "name": "",
          "type": "address"
        }
      ],
      "stateMutability": "view",
      "type": "function"
    },
    {
      "inputs": [
        {
          "internalType": "address",
          "name": "owner",
          "type": "address"
        },
        {
          "internalType": "address",
          "name": "operator",
          "type": "address"
        }
      ],
      "name": "isApprovedForAll",
      "outputs": [
        {
          "internalType": "bool",
          "name": "",
          "type": "bool"
        }
      ],
      "stateMutability": "view",
      "type": "function"
    },
    {
      "inputs": [],
      "name": "name",
      "outputs": [
        {
          "internalType": "string",
          "name": "",
          "type": "string"
        }
      ],
      "stateMutability": "view",
      "type": "function"
    },
    {
      "inputs": [
        {
          "internalType": "uint256",
          "name": "tokenId",
          "type": "uint256"
        }
      ],
      "name": "ownerOf",
      "outputs": [
        {
          "internalType": "address",
          "name": "",
          "type": "address"
        }
      ],
      "stateMutability": "view",
      "type": "function"
    },
    {
      "inputs": [
        {
          "internalType": "address",
          "name": "from",
          "type": "address"
        },
        {
          "internalType": "address",
          "name": "to",
          "type": "address"
        },
        {
          "internalType": "uint256",
          "name": "tokenId",
          "type": "uint256"
        }
      ],
      "name": "safeTransferFrom",
      "outputs": [],
      "stateMutability": "nonpayable",
      "type": "function"
    },
    {
      "inputs": [
        {
          "internalType": "address",
          "name": "from",
          "type": "address"
        },
        {
          "internalType": "address",
          "name": "to",
          "type": "address"
        },
        {
          "internalType": "uint256",
          "name": "tokenId",
          "type": "uint256"
        },
        {
          "internalType": "bytes",
          "name": "_data",
          "type": "bytes"
        }
      ],
      "name": "safeTransferFrom",
      "outputs": [],
      "stateMutability": "nonpayable",
      "type": "function"
    },
    {
      "inputs": [
        {
          "internalType": "address",
          "name": "operator",
          "type": "address"
        },
        {
          "internalType": "bool",
          "name": "approved",
          "type": "bool"
        }
      ],
      "name": "setApprovalForAll",
      "outputs": [],
      "stateMutability": "nonpayable",
      "type": "function"
    },
    {
      "inputs": [
        {
          "internalType": "bytes4",
          "name": "interfaceId",
          "type": "bytes4"
        }
      ],
      "name": "supportsInterface",
      "outputs": [
        {
          "internalType": "bool",
          "name": "",
          "type": "bool"
        }
      ],
      "stateMutability": "view",
      "type": "function"
    },
    {
      "inputs": [],
      "name": "symbol",
      "outputs": [
        {
          "internalType": "string",
          "name": "",
          "type": "string"
        }
      ],
      "stateMutability": "view",
      "type": "function"
    },
    {
      "inputs": [],
      "name": "tokenCounter",
      "outputs": [
        {
          "internalType": "uint256",
          "name": "",
          "type": "uint256"
        }
      ],
      "stateMutability": "view",
      "type": "function"
    },
    {
      "inputs": [
        {
          "internalType": "uint256",
          "name": "tokenId",
          "type": "uint256"
        }
      ],
      "name": "tokenURI",
      "outputs": [
        {
          "internalType": "string",
          "name": "",
          "type": "string"
        }
      ],
      "stateMutability": "view",
      "type": "function"
    },
    {
      "inputs": [
        {
          "internalType": "address",
          "name": "from",
          "type": "address"
        },
        {
          "internalType": "address",
          "name": "to",
          "type": "address"
        },
        {
          "internalType": "uint256",
          "name": "tokenId",
          "type": "uint256"
        }
      ],
      "name": "transferFrom",
      "outputs": [],
      "stateMutability": "nonpayable",
      "type": "function"
    }
  ],
  "transactionHash": "0x15fb23c814cd5437d8f2902f4ca1468bd9611bc6ebc85748844b7a773c86ec86",
  "args": [],
  "numDeployments": 1,
  "solcInputHash": "6733d956018dec7e065c730094a7b9f0",
  "bytecode": "0x60806040523480156200001157600080fd5b506040518060400160405280600781526020017f535647204e4654000000000000000000000000000000000000000000000000008152506040518060400160405280600681526020017f5376674e46540000000000000000000000000000000000000000000000000000815250816000908051906020019062000096929190620000c0565b508060019080519060200190620000af929190620000c0565b5050506000600781905550620001d5565b828054620000ce9062000170565b90600052602060002090601f016020900481019282620000f257600085556200013e565b82601f106200010d57805160ff19168380011785556200013e565b828001600101855582156200013e579182015b828111156200013d57825182559160200191906001019062000120565b5b5090506200014d919062000151565b5090565b5b808211156200016c57600081600090555060010162000152565b5090565b600060028204905060018216806200018957607f821691505b60208210811415620001a0576200019f620001a6565b5b50919050565b7f4e487b7100000000000000000000000000000000000000000000000000000000600052602260045260246000fd5b6130d280620001e56000396000f3fe608060405234801561001057600080fd5b506004361061010b5760003560e01c806371aee193116100a2578063b6a46b3b11610071578063b6a46b3b146102dc578063b88d4fde146102f8578063c87b56dd14610314578063d082e38114610344578063e985e9c5146103625761010b565b806371aee1931461024257806395d89b4114610272578063a1a6a19e14610290578063a22cb465146102c05761010b565b806323b872dd116100de57806323b872dd146101aa57806342842e0e146101c65780636352211e146101e257806370a08231146102125761010b565b806301ffc9a71461011057806306fdde0314610140578063081812fc1461015e578063095ea7b31461018e575b600080fd5b61012a60048036038101906101259190611f83565b610392565b6040516101379190612990565b60405180910390f35b610148610474565b60405161015591906129ab565b60405180910390f35b61017860048036038101906101739190612016565b610506565b6040516101859190612929565b60405180910390f35b6101a860048036038101906101a39190611f47565b61058b565b005b6101c460048036038101906101bf9190611e41565b6106a3565b005b6101e060048036038101906101db9190611e41565b610703565b005b6101fc60048036038101906101f79190612016565b610723565b6040516102099190612929565b60405180910390f35b61022c60048036038101906102279190611ddc565b6107d5565b6040516102399190612bcd565b60405180910390f35b61025c60048036038101906102579190611fd5565b61088d565b60405161026991906129ab565b60405180910390f35b61027a6108dd565b60405161028791906129ab565b60405180910390f35b6102aa60048036038101906102a59190611fd5565b61096f565b6040516102b791906129ab565b60405180910390f35b6102da60048036038101906102d59190611f0b565b610a08565b005b6102f660048036038101906102f19190611fd5565b610a1e565b005b610312600480360381019061030d9190611e90565b610aa4565b005b61032e60048036038101906103299190612016565b610b06565b60405161033b91906129ab565b60405180910390f35b61034c610c58565b6040516103599190612bcd565b60405180910390f35b61037c60048036038101906103779190611e05565b610c5e565b6040516103899190612990565b60405180910390f35b60007f80ac58cd000000000000000000000000000000000000000000000000000000007bffffffffffffffffffffffffffffffffffffffffffffffffffffffff1916827bffffffffffffffffffffffffffffffffffffffffffffffffffffffff1916148061045d57507f5b5e139f000000000000000000000000000000000000000000000000000000007bffffffffffffffffffffffffffffffffffffffffffffffffffffffff1916827bffffffffffffffffffffffffffffffffffffffffffffffffffffffff1916145b8061046d575061046c82610cf2565b5b9050919050565b60606000805461048390612e87565b80601f01602080910402602001604051908101604052809291908181526020018280546104af90612e87565b80156104fc5780601f106104d1576101008083540402835291602001916104fc565b820191906000526020600020905b8154815290600101906020018083116104df57829003601f168201915b5050505050905090565b600061051182610d5c565b610550576040517f08c379a000000000000000000000000000000000000000000000000000000000815260040161054790612b2d565b60405180910390fd5b6004600083815260200190815260200160002060009054906101000a900473ffffffffffffffffffffffffffffffffffffffff169050919050565b600061059682610723565b90508073ffffffffffffffffffffffffffffffffffffffff168373ffffffffffffffffffffffffffffffffffffffff161415610607576040517f08c379a00000000000000000000000000000000000000000000000000000000081526004016105fe90612b8d565b60405180910390fd5b8073ffffffffffffffffffffffffffffffffffffffff16610626610dc8565b73ffffffffffffffffffffffffffffffffffffffff16148061065557506106548161064f610dc8565b610c5e565b5b610694576040517f08c379a000000000000000000000000000000000000000000000000000000000815260040161068b90612a6d565b60405180910390fd5b61069e8383610dd0565b505050565b6106b46106ae610dc8565b82610e89565b6106f3576040517f08c379a00000000000000000000000000000000000000000000000000000000081526004016106ea90612bad565b60405180910390fd5b6106fe838383610f67565b505050565b61071e83838360405180602001604052806000815250610aa4565b505050565b6000806002600084815260200190815260200160002060009054906101000a900473ffffffffffffffffffffffffffffffffffffffff169050600073ffffffffffffffffffffffffffffffffffffffff168173ffffffffffffffffffffffffffffffffffffffff1614156107cc576040517f08c379a00000000000000000000000000000000000000000000000000000000081526004016107c390612aad565b60405180910390fd5b80915050919050565b60008073ffffffffffffffffffffffffffffffffffffffff168273ffffffffffffffffffffffffffffffffffffffff161415610846576040517f08c379a000000000000000000000000000000000000000000000000000000000815260040161083d90612a8d565b60405180910390fd5b600360008373ffffffffffffffffffffffffffffffffffffffff1673ffffffffffffffffffffffffffffffffffffffff168152602001908152602001600020549050919050565b60606108b7826040516020016108a391906128c4565b6040516020818303038152906040526111c3565b6040516020016108c79190612907565b6040516020818303038152906040529050919050565b6060600180546108ec90612e87565b80601f016020809104026020016040519081016040528092919081815260200182805461091890612e87565b80156109655780601f1061093a57610100808354040283529160200191610965565b820191906000526020600020905b81548152906001019060200180831161094857829003601f168201915b5050505050905090565b606060006040518060400160405280601a81526020017f646174613a696d6167652f7376672b786d6c3b6261736536342c000000000000815250905060006109d5846040516020016109c19190612889565b6040516020818303038152906040526111c3565b9050600082826040516020016109ec9291906128a0565b6040516020818303038152906040529050809350505050919050565b610a1a610a13610dc8565b8383611362565b5050565b610a2a336007546114cf565b6000610a358261096f565b90506000610a428261088d565b9050610a50600754826114ed565b6007547ff5acc616aa8ecd00e5d76674d7812f9c3c3571d662c9fba4499deefa6d0be12d82604051610a8291906129ab565b60405180910390a26001600754610a999190612cbc565b600781905550505050565b610ab5610aaf610dc8565b83610e89565b610af4576040517f08c379a0000000000000000000000000000000000000000000000000000000008152600401610aeb90612bad565b60405180910390fd5b610b0084848484611561565b50505050565b6060610b1182610d5c565b610b50576040517f08c379a0000000000000000000000000000000000000000000000000000000008152600401610b4790612b0d565b60405180910390fd5b6000600660008481526020019081526020016000208054610b7090612e87565b80601f0160208091040260200160405190810160405280929190818152602001828054610b9c90612e87565b8015610be95780601f10610bbe57610100808354040283529160200191610be9565b820191906000526020600020905b815481529060010190602001808311610bcc57829003601f168201915b505050505090506000610bfa6115bd565b9050600081511415610c10578192505050610c53565b600082511115610c45578082604051602001610c2d9291906128a0565b60405160208183030381529060405292505050610c53565b610c4e846115d4565b925050505b919050565b60075481565b6000600560008473ffffffffffffffffffffffffffffffffffffffff1673ffffffffffffffffffffffffffffffffffffffff16815260200190815260200160002060008373ffffffffffffffffffffffffffffffffffffffff1673ffffffffffffffffffffffffffffffffffffffff16815260200190815260200160002060009054906101000a900460ff16905092915050565b60007f01ffc9a7000000000000000000000000000000000000000000000000000000007bffffffffffffffffffffffffffffffffffffffffffffffffffffffff1916827bffffffffffffffffffffffffffffffffffffffffffffffffffffffff1916149050919050565b60008073ffffffffffffffffffffffffffffffffffffffff166002600084815260200190815260200160002060009054906101000a900473ffffffffffffffffffffffffffffffffffffffff1673ffffffffffffffffffffffffffffffffffffffff1614159050919050565b600033905090565b816004600083815260200190815260200160002060006101000a81548173ffffffffffffffffffffffffffffffffffffffff021916908373ffffffffffffffffffffffffffffffffffffffff160217905550808273ffffffffffffffffffffffffffffffffffffffff16610e4383610723565b73ffffffffffffffffffffffffffffffffffffffff167f8c5be1e5ebec7d5bd14f71427d1e84f3dd0314c0f7b2291e5b200ac8c7c3b92560405160405180910390a45050565b6000610e9482610d5c565b610ed3576040517f08c379a0000000000000000000000000000000000000000000000000000000008152600401610eca90612a4d565b60405180910390fd5b6000610ede83610723565b90508073ffffffffffffffffffffffffffffffffffffffff168473ffffffffffffffffffffffffffffffffffffffff161480610f4d57508373ffffffffffffffffffffffffffffffffffffffff16610f3584610506565b73ffffffffffffffffffffffffffffffffffffffff16145b80610f5e5750610f5d8185610c5e565b5b91505092915050565b8273ffffffffffffffffffffffffffffffffffffffff16610f8782610723565b73ffffffffffffffffffffffffffffffffffffffff1614610fdd576040517f08c379a0000000000000000000000000000000000000000000000000000000008152600401610fd490612b4d565b60405180910390fd5b600073ffffffffffffffffffffffffffffffffffffffff168273ffffffffffffffffffffffffffffffffffffffff16141561104d576040517f08c379a000000000000000000000000000000000000000000000000000000000815260040161104490612a0d565b60405180910390fd5b61105883838361167b565b611063600082610dd0565b6001600360008573ffffffffffffffffffffffffffffffffffffffff1673ffffffffffffffffffffffffffffffffffffffff16815260200190815260200160002060008282546110b39190612d9d565b925050819055506001600360008473ffffffffffffffffffffffffffffffffffffffff1673ffffffffffffffffffffffffffffffffffffffff168152602001908152602001600020600082825461110a9190612cbc565b92505081905550816002600083815260200190815260200160002060006101000a81548173ffffffffffffffffffffffffffffffffffffffff021916908373ffffffffffffffffffffffffffffffffffffffff160217905550808273ffffffffffffffffffffffffffffffffffffffff168473ffffffffffffffffffffffffffffffffffffffff167fddf252ad1be2c89b69c2b068fc378daa952ba7f163c4a11628f55a4df523b3ef60405160405180910390a4505050565b60606000825114156111e65760405180602001604052806000815250905061135d565b600060405180606001604052806040815260200161305d60409139905060006003600285516112159190612cbc565b61121f9190612d12565b600461122b9190612d43565b9050600060208261123c9190612cbc565b67ffffffffffffffff81111561127b577f4e487b7100000000000000000000000000000000000000000000000000000000600052604160045260246000fd5b6040519080825280601f01601f1916602001820160405280156112ad5781602001600182028036833780820191505090505b509050818152600183018586518101602084015b8183101561131c576003830192508251603f8160121c168501518253600182019150603f81600c1c168501518253600182019150603f8160061c168501518253600182019150603f81168501518253600182019150506112c1565b600389510660018114611336576002811461134657611351565b613d3d60f01b6002830352611351565b603d60f81b60018303525b50505050508093505050505b919050565b8173ffffffffffffffffffffffffffffffffffffffff168373ffffffffffffffffffffffffffffffffffffffff1614156113d1576040517f08c379a00000000000000000000000000000000000000000000000000000000081526004016113c890612a2d565b60405180910390fd5b80600560008573ffffffffffffffffffffffffffffffffffffffff1673ffffffffffffffffffffffffffffffffffffffff16815260200190815260200160002060008473ffffffffffffffffffffffffffffffffffffffff1673ffffffffffffffffffffffffffffffffffffffff16815260200190815260200160002060006101000a81548160ff0219169083151502179055508173ffffffffffffffffffffffffffffffffffffffff168373ffffffffffffffffffffffffffffffffffffffff167f17307eab39ab6107e8899845ad3d59bd9653f200f220920489ca2b5937696c31836040516114c29190612990565b60405180910390a3505050565b6114e9828260405180602001604052806000815250611680565b5050565b6114f682610d5c565b611535576040517f08c379a000000000000000000000000000000000000000000000000000000000815260040161152c90612acd565b60405180910390fd5b8060066000848152602001908152602001600020908051906020019061155c929190611c00565b505050565b61156c848484610f67565b611578848484846116db565b6115b7576040517f08c379a00000000000000000000000000000000000000000000000000000000081526004016115ae906129cd565b60405180910390fd5b50505050565b606060405180602001604052806000815250905090565b60606115df82610d5c565b61161e576040517f08c379a000000000000000000000000000000000000000000000000000000000815260040161161590612b6d565b60405180910390fd5b60006116286115bd565b905060008151116116485760405180602001604052806000815250611673565b8061165284611872565b6040516020016116639291906128a0565b6040516020818303038152906040525b915050919050565b505050565b61168a8383611a1f565b61169760008484846116db565b6116d6576040517f08c379a00000000000000000000000000000000000000000000000000000000081526004016116cd906129cd565b60405180910390fd5b505050565b60006116fc8473ffffffffffffffffffffffffffffffffffffffff16611bed565b15611865578373ffffffffffffffffffffffffffffffffffffffff1663150b7a02611725610dc8565b8786866040518563ffffffff1660e01b81526004016117479493929190612944565b602060405180830381600087803b15801561176157600080fd5b505af192505050801561179257506040513d601f19601f8201168201806040525081019061178f9190611fac565b60015b611815573d80600081146117c2576040519150601f19603f3d011682016040523d82523d6000602084013e6117c7565b606091505b5060008151141561180d576040517f08c379a0000000000000000000000000000000000000000000000000000000008152600401611804906129cd565b60405180910390fd5b805181602001fd5b63150b7a0260e01b7bffffffffffffffffffffffffffffffffffffffffffffffffffffffff1916817bffffffffffffffffffffffffffffffffffffffffffffffffffffffff19161491505061186a565b600190505b949350505050565b606060008214156118ba576040518060400160405280600181526020017f30000000000000000000000000000000000000000000000000000000000000008152509050611a1a565b600082905060005b600082146118ec5780806118d590612eb9565b915050600a826118e59190612d12565b91506118c2565b60008167ffffffffffffffff81111561192e577f4e487b7100000000000000000000000000000000000000000000000000000000600052604160045260246000fd5b6040519080825280601f01601f1916602001820160405280156119605781602001600182028036833780820191505090505b5090505b60008514611a13576001826119799190612d9d565b9150600a856119889190612f02565b60306119949190612cbc565b60f81b8183815181106119d0577f4e487b7100000000000000000000000000000000000000000000000000000000600052603260045260246000fd5b60200101907effffffffffffffffffffffffffffffffffffffffffffffffffffffffffffff1916908160001a905350600a85611a0c9190612d12565b9450611964565b8093505050505b919050565b600073ffffffffffffffffffffffffffffffffffffffff168273ffffffffffffffffffffffffffffffffffffffff161415611a8f576040517f08c379a0000000000000000000000000000000000000000000000000000000008152600401611a8690612aed565b60405180910390fd5b611a9881610d5c565b15611ad8576040517f08c379a0000000000000000000000000000000000000000000000000000000008152600401611acf906129ed565b60405180910390fd5b611ae46000838361167b565b6001600360008473ffffffffffffffffffffffffffffffffffffffff1673ffffffffffffffffffffffffffffffffffffffff1681526020019081526020016000206000828254611b349190612cbc565b92505081905550816002600083815260200190815260200160002060006101000a81548173ffffffffffffffffffffffffffffffffffffffff021916908373ffffffffffffffffffffffffffffffffffffffff160217905550808273ffffffffffffffffffffffffffffffffffffffff16600073ffffffffffffffffffffffffffffffffffffffff167fddf252ad1be2c89b69c2b068fc378daa952ba7f163c4a11628f55a4df523b3ef60405160405180910390a45050565b600080823b905060008111915050919050565b828054611c0c90612e87565b90600052602060002090601f016020900481019282611c2e5760008555611c75565b82601f10611c4757805160ff1916838001178555611c75565b82800160010185558215611c75579182015b82811115611c74578251825591602001919060010190611c59565b5b509050611c829190611c86565b5090565b5b80821115611c9f576000816000905550600101611c87565b5090565b6000611cb6611cb184612c19565b612be8565b905082815260208101848484011115611cce57600080fd5b611cd9848285612e45565b509392505050565b6000611cf4611cef84612c49565b612be8565b905082815260208101848484011115611d0c57600080fd5b611d17848285612e45565b509392505050565b600081359050611d2e81613000565b92915050565b600081359050611d4381613017565b92915050565b600081359050611d588161302e565b92915050565b600081519050611d6d8161302e565b92915050565b600082601f830112611d8457600080fd5b8135611d94848260208601611ca3565b91505092915050565b600082601f830112611dae57600080fd5b8135611dbe848260208601611ce1565b91505092915050565b600081359050611dd681613045565b92915050565b600060208284031215611dee57600080fd5b6000611dfc84828501611d1f565b91505092915050565b60008060408385031215611e1857600080fd5b6000611e2685828601611d1f565b9250506020611e3785828601611d1f565b9150509250929050565b600080600060608486031215611e5657600080fd5b6000611e6486828701611d1f565b9350506020611e7586828701611d1f565b9250506040611e8686828701611dc7565b9150509250925092565b60008060008060808587031215611ea657600080fd5b6000611eb487828801611d1f565b9450506020611ec587828801611d1f565b9350506040611ed687828801611dc7565b925050606085013567ffffffffffffffff811115611ef357600080fd5b611eff87828801611d73565b91505092959194509250565b60008060408385031215611f1e57600080fd5b6000611f2c85828601611d1f565b9250506020611f3d85828601611d34565b9150509250929050565b60008060408385031215611f5a57600080fd5b6000611f6885828601611d1f565b9250506020611f7985828601611dc7565b9150509250929050565b600060208284031215611f9557600080fd5b6000611fa384828501611d49565b91505092915050565b600060208284031215611fbe57600080fd5b6000611fcc84828501611d5e565b91505092915050565b600060208284031215611fe757600080fd5b600082013567ffffffffffffffff81111561200157600080fd5b61200d84828501611d9d565b91505092915050565b60006020828403121561202857600080fd5b600061203684828501611dc7565b91505092915050565b61204881612dd1565b82525050565b61205781612de3565b82525050565b600061206882612c79565b6120728185612c8f565b9350612082818560208601612e54565b61208b81612fef565b840191505092915050565b60006120a182612c84565b6120ab8185612ca0565b93506120bb818560208601612e54565b6120c481612fef565b840191505092915050565b60006120da82612c84565b6120e48185612cb1565b93506120f4818560208601612e54565b80840191505092915050565b600061210d600983612cb1565b91507f7b226e616d65223a2200000000000000000000000000000000000000000000006000830152600982019050919050565b600061214d603283612ca0565b91507f4552433732313a207472616e7366657220746f206e6f6e20455243373231526560008301527f63656976657220696d706c656d656e74657200000000000000000000000000006020830152604082019050919050565b60006121b3601c83612ca0565b91507f4552433732313a20746f6b656e20616c7265616479206d696e746564000000006000830152602082019050919050565b60006121f3602483612ca0565b91507f4552433732313a207472616e7366657220746f20746865207a65726f2061646460008301527f72657373000000000000000000000000000000000000000000000000000000006020830152604082019050919050565b6000612259601983612ca0565b91507f4552433732313a20617070726f766520746f2063616c6c6572000000000000006000830152602082019050919050565b6000612299602c83612ca0565b91507f4552433732313a206f70657261746f7220717565727920666f72206e6f6e657860008301527f697374656e7420746f6b656e00000000000000000000000000000000000000006020830152604082019050919050565b60006122ff600783612cb1565b91507f535647204e4654000000000000000000000000000000000000000000000000006000830152600782019050919050565b600061233f603883612ca0565b91507f4552433732313a20617070726f76652063616c6c6572206973206e6f74206f7760008301527f6e6572206e6f7220617070726f76656420666f7220616c6c00000000000000006020830152604082019050919050565b60006123a5602a83612ca0565b91507f4552433732313a2062616c616e636520717565727920666f7220746865207a6560008301527f726f2061646472657373000000000000000000000000000000000000000000006020830152604082019050919050565b600061240b602983612ca0565b91507f4552433732313a206f776e657220717565727920666f72206e6f6e657869737460008301527f656e7420746f6b656e00000000000000000000000000000000000000000000006020830152604082019050919050565b6000612471602e83612ca0565b91507f45524337323155524953746f726167653a2055524920736574206f66206e6f6e60008301527f6578697374656e7420746f6b656e0000000000000000000000000000000000006020830152604082019050919050565b60006124d7600283612cb1565b91507f227d0000000000000000000000000000000000000000000000000000000000006000830152600282019050919050565b6000612517602083612ca0565b91507f4552433732313a206d696e7420746f20746865207a65726f20616464726573736000830152602082019050919050565b6000612557603183612ca0565b91507f45524337323155524953746f726167653a2055524920717565727920666f722060008301527f6e6f6e6578697374656e7420746f6b656e0000000000000000000000000000006020830152604082019050919050565b60006125bd602c83612ca0565b91507f4552433732313a20617070726f76656420717565727920666f72206e6f6e657860008301527f697374656e7420746f6b656e00000000000000000000000000000000000000006020830152604082019050919050565b6000612623602983612ca0565b91507f4552433732313a207472616e73666572206f6620746f6b656e2074686174206960008301527f73206e6f74206f776e00000000000000000000000000000000000000000000006020830152604082019050919050565b6000612689602f83612ca0565b91507f4552433732314d657461646174613a2055524920717565727920666f72206e6f60008301527f6e6578697374656e7420746f6b656e00000000000000000000000000000000006020830152604082019050919050565b60006126ef604383612cb1565b91507f222c20226465736372697074696f6e223a22416e204e4654206261736564206f60008301527f6e2053564721222c202261747472696275746573223a22222c2022696d61676560208301527f223a2200000000000000000000000000000000000000000000000000000000006040830152604382019050919050565b600061277b602183612ca0565b91507f4552433732313a20617070726f76616c20746f2063757272656e74206f776e6560008301527f72000000000000000000000000000000000000000000000000000000000000006020830152604082019050919050565b60006127e1601d83612cb1565b91507f646174613a6170706c69636174696f6e2f6a736f6e3b6261736536342c0000006000830152601d82019050919050565b6000612821603183612ca0565b91507f4552433732313a207472616e736665722063616c6c6572206973206e6f74206f60008301527f776e6572206e6f7220617070726f7665640000000000000000000000000000006020830152604082019050919050565b61288381612e3b565b82525050565b600061289582846120cf565b915081905092915050565b60006128ac82856120cf565b91506128b882846120cf565b91508190509392505050565b60006128cf82612100565b91506128da826122f2565b91506128e5826126e2565b91506128f182846120cf565b91506128fc826124ca565b915081905092915050565b6000612912826127d4565b915061291e82846120cf565b915081905092915050565b600060208201905061293e600083018461203f565b92915050565b6000608082019050612959600083018761203f565b612966602083018661203f565b612973604083018561287a565b8181036060830152612985818461205d565b905095945050505050565b60006020820190506129a5600083018461204e565b92915050565b600060208201905081810360008301526129c58184612096565b905092915050565b600060208201905081810360008301526129e681612140565b9050919050565b60006020820190508181036000830152612a06816121a6565b9050919050565b60006020820190508181036000830152612a26816121e6565b9050919050565b60006020820190508181036000830152612a468161224c565b9050919050565b60006020820190508181036000830152612a668161228c565b9050919050565b60006020820190508181036000830152612a8681612332565b9050919050565b60006020820190508181036000830152612aa681612398565b9050919050565b60006020820190508181036000830152612ac6816123fe565b9050919050565b60006020820190508181036000830152612ae681612464565b9050919050565b60006020820190508181036000830152612b068161250a565b9050919050565b60006020820190508181036000830152612b268161254a565b9050919050565b60006020820190508181036000830152612b46816125b0565b9050919050565b60006020820190508181036000830152612b6681612616565b9050919050565b60006020820190508181036000830152612b868161267c565b9050919050565b60006020820190508181036000830152612ba68161276e565b9050919050565b60006020820190508181036000830152612bc681612814565b9050919050565b6000602082019050612be2600083018461287a565b92915050565b6000604051905081810181811067ffffffffffffffff82111715612c0f57612c0e612fc0565b5b8060405250919050565b600067ffffffffffffffff821115612c3457612c33612fc0565b5b601f19601f8301169050602081019050919050565b600067ffffffffffffffff821115612c6457612c63612fc0565b5b601f19601f8301169050602081019050919050565b600081519050919050565b600081519050919050565b600082825260208201905092915050565b600082825260208201905092915050565b600081905092915050565b6000612cc782612e3b565b9150612cd283612e3b565b9250827fffffffffffffffffffffffffffffffffffffffffffffffffffffffffffffffff03821115612d0757612d06612f33565b5b828201905092915050565b6000612d1d82612e3b565b9150612d2883612e3b565b925082612d3857612d37612f62565b5b828204905092915050565b6000612d4e82612e3b565b9150612d5983612e3b565b9250817fffffffffffffffffffffffffffffffffffffffffffffffffffffffffffffffff0483118215151615612d9257612d91612f33565b5b828202905092915050565b6000612da882612e3b565b9150612db383612e3b565b925082821015612dc657612dc5612f33565b5b828203905092915050565b6000612ddc82612e1b565b9050919050565b60008115159050919050565b60007fffffffff0000000000000000000000000000000000000000000000000000000082169050919050565b600073ffffffffffffffffffffffffffffffffffffffff82169050919050565b6000819050919050565b82818337600083830152505050565b60005b83811015612e72578082015181840152602081019050612e57565b83811115612e81576000848401525b50505050565b60006002820490506001821680612e9f57607f821691505b60208210811415612eb357612eb2612f91565b5b50919050565b6000612ec482612e3b565b91507fffffffffffffffffffffffffffffffffffffffffffffffffffffffffffffffff821415612ef757612ef6612f33565b5b600182019050919050565b6000612f0d82612e3b565b9150612f1883612e3b565b925082612f2857612f27612f62565b5b828206905092915050565b7f4e487b7100000000000000000000000000000000000000000000000000000000600052601160045260246000fd5b7f4e487b7100000000000000000000000000000000000000000000000000000000600052601260045260246000fd5b7f4e487b7100000000000000000000000000000000000000000000000000000000600052602260045260246000fd5b7f4e487b7100000000000000000000000000000000000000000000000000000000600052604160045260246000fd5b6000601f19601f8301169050919050565b61300981612dd1565b811461301457600080fd5b50565b61302081612de3565b811461302b57600080fd5b50565b61303781612def565b811461304257600080fd5b50565b61304e81612e3b565b811461305957600080fd5b5056fe4142434445464748494a4b4c4d4e4f505152535455565758595a6162636465666768696a6b6c6d6e6f707172737475767778797a303132333435363738392b2fa264697066735822122049519cd876f007126ed92e7b6f4fda25697253ee804d196cfb5aa0e3389793f064736f6c63430008000033",
  "devdoc": {
    "kind": "dev",
    "methods": {
      "approve(address,uint256)": {
        "details": "See {IERC721-approve}."
      },
      "balanceOf(address)": {
        "details": "See {IERC721-balanceOf}."
      },
      "getApproved(uint256)": {
        "details": "See {IERC721-getApproved}."
      },
      "isApprovedForAll(address,address)": {
        "details": "See {IERC721-isApprovedForAll}."
      },
      "name()": {
        "details": "See {IERC721Metadata-name}."
      },
      "ownerOf(uint256)": {
        "details": "See {IERC721-ownerOf}."
      },
      "safeTransferFrom(address,address,uint256)": {
        "details": "See {IERC721-safeTransferFrom}."
      },
      "safeTransferFrom(address,address,uint256,bytes)": {
        "details": "See {IERC721-safeTransferFrom}."
      },
      "setApprovalForAll(address,bool)": {
        "details": "See {IERC721-setApprovalForAll}."
      },
      "supportsInterface(bytes4)": {
        "details": "See {IERC165-supportsInterface}."
      },
      "symbol()": {
        "details": "See {IERC721Metadata-symbol}."
      },
      "tokenURI(uint256)": {
        "details": "See {IERC721Metadata-tokenURI}."
      },
      "transferFrom(address,address,uint256)": {
        "details": "See {IERC721-transferFrom}."
      }
    },
    "version": 1
  },
  "userdoc": {
    "kind": "user",
    "methods": {},
    "version": 1
  },
  "storageLayout": {
    "storage": [
      {
        "astId": 25,
        "contract": "contracts/SVGNFT.sol:SVGNFT",
        "label": "_name",
        "offset": 0,
        "slot": "0",
        "type": "t_string_storage"
      },
      {
        "astId": 27,
        "contract": "contracts/SVGNFT.sol:SVGNFT",
        "label": "_symbol",
        "offset": 0,
        "slot": "1",
        "type": "t_string_storage"
      },
      {
        "astId": 31,
        "contract": "contracts/SVGNFT.sol:SVGNFT",
        "label": "_owners",
        "offset": 0,
        "slot": "2",
        "type": "t_mapping(t_uint256,t_address)"
      },
      {
        "astId": 35,
        "contract": "contracts/SVGNFT.sol:SVGNFT",
        "label": "_balances",
        "offset": 0,
        "slot": "3",
        "type": "t_mapping(t_address,t_uint256)"
      },
      {
        "astId": 39,
        "contract": "contracts/SVGNFT.sol:SVGNFT",
        "label": "_tokenApprovals",
        "offset": 0,
        "slot": "4",
        "type": "t_mapping(t_uint256,t_address)"
      },
      {
        "astId": 45,
        "contract": "contracts/SVGNFT.sol:SVGNFT",
        "label": "_operatorApprovals",
        "offset": 0,
        "slot": "5",
        "type": "t_mapping(t_address,t_mapping(t_address,t_bool))"
      },
      {
        "astId": 977,
        "contract": "contracts/SVGNFT.sol:SVGNFT",
        "label": "_tokenURIs",
        "offset": 0,
        "slot": "6",
        "type": "t_mapping(t_uint256,t_string_storage)"
      },
      {
        "astId": 1800,
        "contract": "contracts/SVGNFT.sol:SVGNFT",
        "label": "tokenCounter",
        "offset": 0,
        "slot": "7",
        "type": "t_uint256"
      }
    ],
    "types": {
      "t_address": {
        "encoding": "inplace",
        "label": "address",
        "numberOfBytes": "20"
      },
      "t_bool": {
        "encoding": "inplace",
        "label": "bool",
        "numberOfBytes": "1"
      },
      "t_mapping(t_address,t_bool)": {
        "encoding": "mapping",
        "key": "t_address",
        "label": "mapping(address => bool)",
        "numberOfBytes": "32",
        "value": "t_bool"
      },
      "t_mapping(t_address,t_mapping(t_address,t_bool))": {
        "encoding": "mapping",
        "key": "t_address",
        "label": "mapping(address => mapping(address => bool))",
        "numberOfBytes": "32",
        "value": "t_mapping(t_address,t_bool)"
      },
      "t_mapping(t_address,t_uint256)": {
        "encoding": "mapping",
        "key": "t_address",
        "label": "mapping(address => uint256)",
        "numberOfBytes": "32",
        "value": "t_uint256"
      },
      "t_mapping(t_uint256,t_address)": {
        "encoding": "mapping",
        "key": "t_uint256",
        "label": "mapping(uint256 => address)",
        "numberOfBytes": "32",
        "value": "t_address"
      },
      "t_mapping(t_uint256,t_string_storage)": {
        "encoding": "mapping",
        "key": "t_uint256",
        "label": "mapping(uint256 => string)",
        "numberOfBytes": "32",
        "value": "t_string_storage"
      },
      "t_string_storage": {
        "encoding": "bytes",
        "label": "string",
        "numberOfBytes": "32"
      },
      "t_uint256": {
        "encoding": "inplace",
        "label": "uint256",
        "numberOfBytes": "32"
      }
    }
  }
}